{
  "address": "0x2258D8D6f005316AEFa8c9Fe7d13C215445a85b4",
  "abi": [
    {
      "inputs": [
        {
          "internalType": "address",
          "name": "exampleExternalContractAddress",
          "type": "address"
        }
      ],
      "stateMutability": "nonpayable",
      "type": "constructor"
    },
    {
      "anonymous": false,
      "inputs": [
        {
          "indexed": false,
          "internalType": "uint256",
          "name": "amount",
          "type": "uint256"
        }
      ],
      "name": "CompleteFail",
      "type": "event"
    },
    {
      "anonymous": false,
      "inputs": [
        {
          "indexed": false,
          "internalType": "uint256",
          "name": "amount",
          "type": "uint256"
        }
      ],
      "name": "CompleteSuccess",
      "type": "event"
    },
    {
      "anonymous": false,
      "inputs": [],
      "name": "DeadlineReach",
      "type": "event"
    },
    {
      "anonymous": false,
      "inputs": [
        {
          "indexed": true,
          "internalType": "address",
          "name": "sender",
          "type": "address"
        },
        {
          "indexed": false,
          "internalType": "uint256",
          "name": "amount",
          "type": "uint256"
        }
      ],
      "name": "Stake",
      "type": "event"
    },
    {
      "inputs": [
        {
          "internalType": "address",
          "name": "",
          "type": "address"
        }
      ],
      "name": "balances",
      "outputs": [
        {
          "internalType": "uint256",
          "name": "",
          "type": "uint256"
        }
      ],
      "stateMutability": "view",
      "type": "function"
    },
    {
      "inputs": [],
      "name": "deadline",
      "outputs": [
        {
          "internalType": "uint256",
          "name": "",
          "type": "uint256"
        }
      ],
      "stateMutability": "view",
      "type": "function"
    },
    {
      "inputs": [],
      "name": "deadlineReached",
      "outputs": [
        {
          "internalType": "bool",
          "name": "",
          "type": "bool"
        }
      ],
      "stateMutability": "view",
      "type": "function"
    },
    {
      "inputs": [],
      "name": "exampleExternalContract",
      "outputs": [
        {
          "internalType": "contract ExampleExternalContract",
          "name": "",
          "type": "address"
        }
      ],
      "stateMutability": "view",
      "type": "function"
    },
    {
      "inputs": [],
      "name": "execute",
      "outputs": [],
      "stateMutability": "nonpayable",
      "type": "function"
    },
    {
      "inputs": [],
      "name": "force",
      "outputs": [],
      "stateMutability": "nonpayable",
      "type": "function"
    },
    {
      "inputs": [],
      "name": "stake",
      "outputs": [],
      "stateMutability": "payable",
      "type": "function"
    },
    {
      "inputs": [],
      "name": "threshold",
      "outputs": [
        {
          "internalType": "uint256",
          "name": "",
          "type": "uint256"
        }
      ],
      "stateMutability": "view",
      "type": "function"
    },
    {
      "inputs": [],
      "name": "timeLeft",
      "outputs": [
        {
          "internalType": "uint256",
          "name": "",
          "type": "uint256"
        }
      ],
      "stateMutability": "view",
      "type": "function"
    },
    {
      "inputs": [],
      "name": "withdraw",
      "outputs": [],
      "stateMutability": "nonpayable",
      "type": "function"
    },
    {
      "stateMutability": "payable",
      "type": "receive"
    }
  ],
  "transactionHash": "0x2db5a1b07dbe86e014ba01b73dbb5e0c71fc4f17eee572bb4391db5f3f5b2077",
  "args": [
    "0x671f0D50b5e86F1f17B50c3bD02eE537A76Ded66"
  ],
  "numDeployments": 1,
  "solcInputHash": "7f5a63b3af8b3b291e01ea511e51344a",
  "bytecode": "0x6080604052610011426205460061006e565b6002556003805460ff1916905534801561002a57600080fd5b50604051610a6e380380610a6e83398101604081905261004991610095565b600080546001600160a01b0319166001600160a01b03929092169190911790556100c5565b8082018082111561008f57634e487b7160e01b600052601160045260246000fd5b92915050565b6000602082840312156100a757600080fd5b81516001600160a01b03811681146100be57600080fd5b9392505050565b61099a806100d46000396000f3fe6080604052600436106100955760003560e01c806342cde4e81161005957806342cde4e814610131578063614619541461014d5780639f75f22714610162578063a29b8b911461019a578063a79f26dc146101c457600080fd5b80631300a6d1146100a957806327e235e3146100d157806329dcb0cf146100fe5780633a4b66f1146101145780633ccfd60b1461011c57600080fd5b366100a4576100a26101d9565b005b600080fd5b3480156100b557600080fd5b506100be61028b565b6040519081526020015b60405180910390f35b3480156100dd57600080fd5b506100be6100ec36600461085e565b60016020526000908152604090205481565b34801561010a57600080fd5b506100be60025481565b6100a26101d9565b34801561012857600080fd5b506100a26102c1565b34801561013d57600080fd5b506100be670de0b6b3a764000081565b34801561015957600080fd5b506100a2610547565b34801561016e57600080fd5b50600054610182906001600160a01b031681565b6040516001600160a01b0390911681526020016100c8565b3480156101a657600080fd5b506003546101b49060ff1681565b60405190151581526020016100c8565b3480156101d057600080fd5b506100a261081c565b6002544211156102305760405162461bcd60e51b815260206004820152601860248201527f5374616b696e6720706572696f642068617320656e646564000000000000000060448201526064015b60405180910390fd5b336000908152600160205260408120805434929061024f9084906108a4565b909155505060405134815233907febedb8b3c678666e7f36970bc8f57abf6d8fa2e828c0da91ea5b75bf68ed101a9060200160405180910390a2565b60035460009060ff161561029f5750600090565b60025442106102ae5750600090565b426002546102bc91906108bd565b905090565b60035460ff161561030f5760405162461bcd60e51b8152602060048201526018602482015277111958591b1a5b9948185b1c9958591e481c995858da195960421b6044820152606401610227565b60008054906101000a90046001600160a01b03166001600160a01b0316639d9a7fe96040518163ffffffff1660e01b8152600401602060405180830381865afa158015610360573d6000803e3d6000fd5b505050506040513d601f19601f8201168201806040525081019061038491906108d0565b156103a15760405162461bcd60e51b8152600401610227906108f2565b60035460ff16806103b457506002544210155b6103fb5760405162461bcd60e51b8152602060048201526018602482015277111958591b1a5b99481b9bdd081c995858da1959081e595d60421b6044820152606401610227565b670de0b6b3a764000047106104525760405162461bcd60e51b815260206004820152601e60248201527f5468726573686f6c64206d65742c2063616e6e6f7420776974686472617700006044820152606401610227565b33600090815260016020526040902054806104a85760405162461bcd60e51b81526020600482015260166024820152754e6f2062616c616e636520746f20776974686472617760501b6044820152606401610227565b336000818152600160205260408082208290555190919083908381818185875af1925050503d80600081146104f9576040519150601f19603f3d011682016040523d82523d6000602084013e6104fe565b606091505b50509050806105435760405162461bcd60e51b815260206004820152601160248201527015da5d1a191c985dd85b0819985a5b1959607a1b6044820152606401610227565b5050565b60035460ff16156105955760405162461bcd60e51b8152602060048201526018602482015277111958591b1a5b9948185b1c9958591e481c995858da195960421b6044820152606401610227565b60008054906101000a90046001600160a01b03166001600160a01b0316639d9a7fe96040518163ffffffff1660e01b8152600401602060405180830381865afa1580156105e6573d6000803e3d6000fd5b505050506040513d601f19601f8201168201806040525081019061060a91906108d0565b156106275760405162461bcd60e51b8152600401610227906108f2565b60035460ff1615801561063c57506002544210155b15610678576003805460ff191660011790556040517fd84f3490b1136384f9539637903d617faafd06cc1d1768d7f25f2a3eb35db28f90600090a15b60035460ff166106c55760405162461bcd60e51b8152602060048201526018602482015277111958591b1a5b99481b9bdd081c995858da1959081e595d60421b6044820152606401610227565b670de0b6b3a7640000471061081a576040514781527ff610a5a3ca3d743cea7119503e0eb6390c7cfa7832c02f7b6ebabf344fc7b9729060200160405180910390a16000805460408051600481526024810182526020810180516001600160e01b031663522e117760e01b17905290516001600160a01b0390921691479161074c91610935565b60006040518083038185875af1925050503d8060008114610789576040519150601f19603f3d011682016040523d82523d6000602084013e61078e565b606091505b50509050806107cb576040514781527fef6cde3b69767671c056279b6a98b14964df5b6fab582e3bfca86cad43a4fa259060200160405180910390a15b806108185760405162461bcd60e51b815260206004820152601d60248201527f45787465726e616c20636f6e74726163742063616c6c206661696c65640000006044820152606401610227565b505b565b60035460ff1661081a576003805460ff191660011790556040517fd84f3490b1136384f9539637903d617faafd06cc1d1768d7f25f2a3eb35db28f90600090a1565b60006020828403121561087057600080fd5b81356001600160a01b038116811461088757600080fd5b9392505050565b634e487b7160e01b600052601160045260246000fd5b808201808211156108b7576108b761088e565b92915050565b818103818111156108b7576108b761088e565b6000602082840312156108e257600080fd5b8151801515811461088757600080fd5b60208082526023908201527f45787465726e616c20636f6e747261637420616c726561647920636f6d706c656040820152621d195960ea1b606082015260800190565b6000825160005b81811015610956576020818601810151858301520161093c565b50600092019182525091905056fea264697066735822122045ff2ce379a068ad2dafbcf5059b440540ca8d6f48680e8c241c59be9fe7cbfb64736f6c63430008140033",
  "devdoc": {
    "kind": "dev",
    "methods": {},
    "version": 1
  },
  "userdoc": {
    "kind": "user",
    "methods": {},
    "version": 1
  },
  "storageLayout": {
    "storage": [
      {
        "astId": 19,
        "contract": "contracts/Staker.sol:Staker",
        "label": "exampleExternalContract",
        "offset": 0,
        "slot": "0",
        "type": "t_contract(ExampleExternalContract)12"
      },
      {
        "astId": 23,
        "contract": "contracts/Staker.sol:Staker",
        "label": "balances",
        "offset": 0,
        "slot": "1",
        "type": "t_mapping(t_address,t_uint256)"
      },
      {
        "astId": 32,
        "contract": "contracts/Staker.sol:Staker",
        "label": "deadline",
        "offset": 0,
        "slot": "2",
        "type": "t_uint256"
      },
      {
        "astId": 35,
        "contract": "contracts/Staker.sol:Staker",
        "label": "deadlineReached",
        "offset": 0,
        "slot": "3",
        "type": "t_bool"
      }
    ],
    "types": {
      "t_address": {
        "encoding": "inplace",
        "label": "address",
        "numberOfBytes": "20"
      },
      "t_bool": {
        "encoding": "inplace",
        "label": "bool",
        "numberOfBytes": "1"
      },
      "t_contract(ExampleExternalContract)12": {
        "encoding": "inplace",
        "label": "contract ExampleExternalContract",
        "numberOfBytes": "20"
      },
      "t_mapping(t_address,t_uint256)": {
        "encoding": "mapping",
        "key": "t_address",
        "label": "mapping(address => uint256)",
        "numberOfBytes": "32",
        "value": "t_uint256"
      },
      "t_uint256": {
        "encoding": "inplace",
        "label": "uint256",
        "numberOfBytes": "32"
      }
    }
  }
}