{
  "address": "0xC16d207Fe4CA6A7806A94336D1C1053f54A8a20a",
  "abi": [
    {
      "inputs": [],
      "stateMutability": "payable",
      "type": "constructor"
    },
    {
      "inputs": [],
      "name": "FailedToSendEther",
      "type": "error"
    },
    {
      "inputs": [],
      "name": "NotEnoughEther",
      "type": "error"
    },
    {
      "anonymous": false,
      "inputs": [
        {
          "indexed": true,
          "internalType": "address",
          "name": "player",
          "type": "address"
        },
        {
          "indexed": false,
          "internalType": "uint256",
          "name": "amount",
          "type": "uint256"
        },
        {
          "indexed": false,
          "internalType": "uint256",
          "name": "roll",
          "type": "uint256"
        }
      ],
      "name": "Roll",
      "type": "event"
    },
    {
      "anonymous": false,
      "inputs": [
        {
          "indexed": false,
          "internalType": "address",
          "name": "winner",
          "type": "address"
        },
        {
          "indexed": false,
          "internalType": "uint256",
          "name": "amount",
          "type": "uint256"
        }
      ],
      "name": "Winner",
      "type": "event"
    },
    {
      "inputs": [],
      "name": "nonce",
      "outputs": [
        {
          "internalType": "uint256",
          "name": "",
          "type": "uint256"
        }
      ],
      "stateMutability": "view",
      "type": "function"
    },
    {
      "inputs": [],
      "name": "prize",
      "outputs": [
        {
          "internalType": "uint256",
          "name": "",
          "type": "uint256"
        }
      ],
      "stateMutability": "view",
      "type": "function"
    },
    {
      "inputs": [],
      "name": "rollTheDice",
      "outputs": [],
      "stateMutability": "payable",
      "type": "function"
    },
    {
      "stateMutability": "payable",
      "type": "receive"
    }
  ],
  "transactionHash": "0x832f01881468ddf85c3af34b71813fe33b5c61a7dc2fd7349aa6288ee86200bf",
  "args": [],
  "numDeployments": 1,
  "solcInputHash": "e2040f3bab2869f5d399fa4e4cf3dafd",
  "bytecode": "0x60806040526000808055600155610014610019565b610082565b606461002647600a610035565b6100309190610060565b600155565b808202811582820484141761005a57634e487b7160e01b600052601160045260246000fd5b92915050565b60008261007d57634e487b7160e01b600052601260045260246000fd5b500490565b6107da806100916000396000f3fe6080604052600436106100385760003560e01c80637d789dee14610044578063affed0e01461004e578063e3ac5d261461007657600080fd5b3661003f57005b600080fd5b61004c61008c565b005b34801561005a57600080fd5b5061006460005481565b60405190815260200160405180910390f35b34801561008257600080fd5b5061006460015481565b6100ae60405180606001604052806026815260200161077f602691393461047f565b66071afd498d00003410156100f7576100de604051806060016040528060238152602001610716602391396104c8565b604051638a0d377960e01b815260040160405180910390fd5b6101356040518060400160405280601d81526020017f2323204469636547616d653a2043616c63756c6174696e6720686173680000008152506104c8565b60006101426001436105aa565b409050600081306000546040516020016101819392919092835260609190911b6bffffffffffffffffffffffff19166020830152603482015260540190565b60408051601f198184030181529190528051602090910120905060006101a86010836105d9565b90506101de604051806040016040528060128152602001711191902234b1b2a3b0b6b29d102937b6361d60711b8152508261047f565b61021f6040518060400160405280601b81526020017f2323204469636547616d653a2043757272656e74206e6f6e63653a000000000081525060005461047f565b60008054908061022e836105ed565b9091555060649050610241346028610606565b61024b919061061d565b6001600082825461025c9190610631565b925050819055506102a46040518060400160405280601b81526020017f2323204469636547616d653a2055706461746564207072697a653a000000000081525060015461047f565b604080513481526020810183905233917f61cfee61b80d296eb67d23740a2278ba7f3d857fe9aa27f1ed9fe4882e254360910160405180910390a260058111156103215761031c604051806040016040528060138152602001721191902234b1b2a3b0b6b29d102637b7b9b2b960691b8152506104c8565b505050565b61034560405180606001604052806023815260200161075c6023913960015461047f565b6000600154905061036e604051806060016040528060238152602001610739602391393361050e565b604051600090339083908381818185875af1925050503d80600081146103b0576040519150601f19603f3d011682016040523d82523d6000602084013e6103b5565b606091505b50509050806103f8576103df6040518060600160405280602581526020016106f1602591396104c8565b604051630dcf35db60e41b815260040160405180910390fd5b610400610553565b60408051338152602081018490527f9c2270628a9b29d30ae96b6c4c14ed646ee134febdce38a5b77f2bde9cea2e20910160405180910390a16104786040518060400160405280601881526020017f2323204469636547616d653a2073656e74206d6f6e65792000000000000000008152508361047f565b5050505050565b6104c4828260405160240161049592919061068a565b60408051601f198184030181529190526020810180516001600160e01b0316632d839cb360e21b17905261056f565b5050565b61050b816040516024016104dc91906106ac565b60408051601f198184030181529190526020810180516001600160e01b031663104c13eb60e21b17905261056f565b50565b6104c482826040516024016105249291906106c6565b60408051601f198184030181529190526020810180516001600160e01b031663319af33360e01b17905261056f565b606461056047600a610606565b61056a919061061d565b600155565b61050b8160006a636f6e736f6c652e6c6f679050600080835160208501845afa505050565b634e487b7160e01b600052601160045260246000fd5b818103818111156105bd576105bd610594565b92915050565b634e487b7160e01b600052601260045260246000fd5b6000826105e8576105e86105c3565b500690565b6000600182016105ff576105ff610594565b5060010190565b80820281158282048414176105bd576105bd610594565b60008261062c5761062c6105c3565b500490565b808201808211156105bd576105bd610594565b6000815180845260005b8181101561066a5760208185018101518683018201520161064e565b506000602082860101526020601f19601f83011685010191505092915050565b60408152600061069d6040830185610644565b90508260208301529392505050565b6020815260006106bf6020830184610644565b9392505050565b6040815260006106d96040830185610644565b905060018060a01b0383166020830152939250505056fe232320585858584469636547616d653a204661696c656420746f2073656e6420457468657223232058585858204469636547616d653a204e6f7420656e6f756768206574686572212323204469636547616d653a20417474656d7074696e6720746f2073656e6420746f3a2323204469636547616d653a2057696e6e6572212053656e64696e67207072697a653a2323204469636547616d653a205374617274696e6720726f6c6c2c206d73672e76616c75653aa264697066735822122003d7ad537534c0903d77bbe643470eeed3bc6dc49d3d4fb9fb23e1e7c3521dee64736f6c63430008140033",
  "devdoc": {
    "kind": "dev",
    "methods": {},
    "version": 1
  },
  "userdoc": {
    "kind": "user",
    "methods": {},
    "version": 1
  },
  "storageLayout": {
    "storage": [
      {
        "astId": 183,
        "contract": "contracts/DiceGame.sol:DiceGame",
        "label": "nonce",
        "offset": 0,
        "slot": "0",
        "type": "t_uint256"
      },
      {
        "astId": 186,
        "contract": "contracts/DiceGame.sol:DiceGame",
        "label": "prize",
        "offset": 0,
        "slot": "1",
        "type": "t_uint256"
      }
    ],
    "types": {
      "t_uint256": {
        "encoding": "inplace",
        "label": "uint256",
        "numberOfBytes": "32"
      }
    }
  }
}