{
  "address": "0x82D47defB757DfaE45a4e5A3A7AF885ad55163c8",
  "abi": [
    {
      "inputs": [
        {
          "internalType": "address payable",
          "name": "diceGameAddress",
          "type": "address"
        }
      ],
      "stateMutability": "nonpayable",
      "type": "constructor"
    },
    {
      "inputs": [],
      "name": "FailedToSendEther",
      "type": "error"
    },
    {
      "inputs": [],
      "name": "InsufficientBalance",
      "type": "error"
    },
    {
      "inputs": [],
      "name": "NoBalanceToWithdraw",
      "type": "error"
    },
    {
      "inputs": [],
      "name": "NotEnoughBalance",
      "type": "error"
    },
    {
      "inputs": [],
      "name": "NotGoingToWin",
      "type": "error"
    },
    {
      "inputs": [
        {
          "internalType": "address",
          "name": "owner",
          "type": "address"
        }
      ],
      "name": "OwnableInvalidOwner",
      "type": "error"
    },
    {
      "inputs": [
        {
          "internalType": "address",
          "name": "account",
          "type": "address"
        }
      ],
      "name": "OwnableUnauthorizedAccount",
      "type": "error"
    },
    {
      "anonymous": false,
      "inputs": [
        {
          "indexed": true,
          "internalType": "address",
          "name": "previousOwner",
          "type": "address"
        },
        {
          "indexed": true,
          "internalType": "address",
          "name": "newOwner",
          "type": "address"
        }
      ],
      "name": "OwnershipTransferred",
      "type": "event"
    },
    {
      "inputs": [],
      "name": "diceGame",
      "outputs": [
        {
          "internalType": "contract DiceGame",
          "name": "",
          "type": "address"
        }
      ],
      "stateMutability": "view",
      "type": "function"
    },
    {
      "inputs": [],
      "name": "owner",
      "outputs": [
        {
          "internalType": "address",
          "name": "",
          "type": "address"
        }
      ],
      "stateMutability": "view",
      "type": "function"
    },
    {
      "inputs": [],
      "name": "renounceOwnership",
      "outputs": [],
      "stateMutability": "nonpayable",
      "type": "function"
    },
    {
      "inputs": [],
      "name": "riggedRoll",
      "outputs": [],
      "stateMutability": "payable",
      "type": "function"
    },
    {
      "inputs": [
        {
          "internalType": "address",
          "name": "newOwner",
          "type": "address"
        }
      ],
      "name": "transferOwnership",
      "outputs": [],
      "stateMutability": "nonpayable",
      "type": "function"
    },
    {
      "inputs": [
        {
          "internalType": "address payable",
          "name": "to",
          "type": "address"
        },
        {
          "internalType": "uint256",
          "name": "amount",
          "type": "uint256"
        }
      ],
      "name": "withdraw",
      "outputs": [],
      "stateMutability": "nonpayable",
      "type": "function"
    },
    {
      "stateMutability": "payable",
      "type": "receive"
    }
  ],
  "transactionHash": "0xa16ec262ae1cc9291e2a41d8d670937aa8eb3813738d252ca25a961f1207886a",
  "args": [
    "0xC16d207Fe4CA6A7806A94336D1C1053f54A8a20a"
  ],
  "numDeployments": 2,
  "solcInputHash": "399b7b8eedd0d42ab5fd9e0dbd48b47f",
  "bytecode": "0x608060405234801561001057600080fd5b50604051610d1c380380610d1c83398101604081905261002f916100d4565b338061005557604051631e4fbdf760e01b81526000600482015260240160405180910390fd5b61005e81610084565b50600180546001600160a01b0319166001600160a01b0392909216919091179055610104565b600080546001600160a01b038381166001600160a01b0319831681178455604051919092169283917f8be0079c531659141344cd1fd0a4f28419497f9722a3daafe3b4186f6b6457e09190a35050565b6000602082840312156100e657600080fd5b81516001600160a01b03811681146100fd57600080fd5b9392505050565b610c09806101136000396000f3fe6080604052600436106100595760003560e01c80636b5e97f814610065578063715018a61461006f5780638da5cb5b146100845780638e288fd1146100ba578063f2fde38b146100da578063f3fef3a3146100fa57600080fd5b3661006057005b600080fd5b61006d61011a565b005b34801561007b57600080fd5b5061006d6104d8565b34801561009057600080fd5b506000546001600160a01b03165b6040516001600160a01b03909116815260200160405180910390f35b3480156100c657600080fd5b5060015461009e906001600160a01b031681565b3480156100e657600080fd5b5061006d6100f536600461087d565b6104ec565b34801561010657600080fd5b5061006d6101153660046108a1565b61052f565b61013b604051806060016040528060238152602001610a8a602391396106f9565b61015d604051806060016040528060228152602001610b8f602291393461073c565b61017f604051806060016040528060278152602001610b20602791394761073c565b66071afd498d00003410156101af576101af6040518060600160405280603581526020016109d5603591396106f9565b66071afd498d00004710156101f8576101df604051806060016040528060388152602001610a30603891396106f9565b60405163569d45cf60e11b815260040160405180910390fd5b60006102056001436108cd565b6001546040805163057ff68760e51b815290519240935060009284926001600160a01b031691829163affed0e0916004808201926020929091908290030181865afa158015610258573d6000803e3d6000fd5b505050506040513d601f19601f8201168201806040525081019061027c91906108f4565b6040516020016102b19392919092835260609190911b6bffffffffffffffffffffffff19166020830152603482015260540190565b60408051601f198184030181529190528051602090910120905060006102d860108361090d565b90506102fc604051806060016040528060268152602001610a0a602691398261073c565b604080518082018252601d81527f232320526967676564526f6c6c3a2043757272656e74206e6f6e63653a000000602080830191909152600154835163057ff68760e51b815293516103a3946001600160a01b039092169263affed0e092600480820193918290030181865afa15801561037a573d6000803e3d6000fd5b505050506040513d601f19601f8201168201806040525081019061039e91906108f4565b61073c565b6103e26040518060400160405280602081526020017f232320526967676564526f6c6c3a20436f6e74726163742062616c616e63653a8152504761073c565b60058111156104255761040c6040518060600160405280602c8152602001610af4602c91396106f9565b6040516301ae072160e61b815260040160405180910390fd5b6104636040518060400160405280601f81526020017f232320526967676564526f6c6c3a20526f6c6c696e67207468652064696365008152506106f9565b600160009054906101000a90046001600160a01b03166001600160a01b0316637d789dee66071afd498d00006040518263ffffffff1660e01b81526004016000604051808303818588803b1580156104ba57600080fd5b505af11580156104ce573d6000803e3d6000fd5b5050505050505050565b6104e0610785565b6104ea60006107b2565b565b6104f4610785565b6001600160a01b03811661052357604051631e4fbdf760e01b8152600060048201526024015b60405180910390fd5b61052c816107b2565b50565b610537610785565b610559604051806060016040528060238152602001610b47602391394761073c565b6105986040518060400160405280601e81526020017f232320526967676564526f6c6c3a205769746864726177696e6720746f3a000081525083610802565b6105ba604051806060016040528060228152602001610a68602291398261073c565b806000036105fc576105e3604051806060016040528060248152602001610ad0602491396106f9565b60405163177b02e160e31b815260040160405180910390fd5b8047101561063e57610625604051806060016040528060238152602001610aad602391396106f9565b604051631e9acf1760e31b815260040160405180910390fd5b6000826001600160a01b03168260405160006040518083038185875af1925050503d806000811461068b576040519150601f19603f3d011682016040523d82523d6000602084013e610690565b606091505b50509050806106d3576106ba604051806060016040528060238152602001610bb1602391396106f9565b604051630dcf35db60e41b815260040160405180910390fd5b6106f4604051806060016040528060258152602001610b6a602591396106f9565b505050565b61052c8160405160240161070d9190610975565b60408051601f198184030181529190526020810180516001600160e01b031663104c13eb60e21b179052610843565b6107818282604051602401610752929190610988565b60408051601f198184030181529190526020810180516001600160e01b0316632d839cb360e21b179052610843565b5050565b6000546001600160a01b031633146104ea5760405163118cdaa760e01b815233600482015260240161051a565b600080546001600160a01b038381166001600160a01b0319831681178455604051919092169283917f8be0079c531659141344cd1fd0a4f28419497f9722a3daafe3b4186f6b6457e09190a35050565b61078182826040516024016108189291906109aa565b60408051601f198184030181529190526020810180516001600160e01b031663319af33360e01b1790525b61052c8160006a636f6e736f6c652e6c6f679050600080835160208501845afa505050565b6001600160a01b038116811461052c57600080fd5b60006020828403121561088f57600080fd5b813561089a81610868565b9392505050565b600080604083850312156108b457600080fd5b82356108bf81610868565b946020939093013593505050565b818103818111156108ee57634e487b7160e01b600052601160045260246000fd5b92915050565b60006020828403121561090657600080fd5b5051919050565b60008261092a57634e487b7160e01b600052601260045260246000fd5b500690565b6000815180845260005b8181101561095557602081850181015186830182015201610939565b506000602082860101526020601f19601f83011685010191505092915050565b60208152600061089a602083018461092f565b60408152600061099b604083018561092f565b90508260208301529392505050565b6040815260006109bd604083018561092f565b905060018060a01b0383166020830152939250505056fe232320526967676564526f6c6c3a20497427732062657474657220746f2073656e64206174206c6561737420302e30303220455448232320526967676564526f6c6c3a2050726564696374656420726f6c6c206f7574636f6d653a232320526967676564526f6c6c3a20436f6e7472616374206e65656473206174206c6561737420302e303032204554482062616c616e6365232320526967676564526f6c6c3a205769746864726177696e6720616d6f756e743a232320526967676564526f6c6c3a205374617274696e672072696767656420726f6c6c232320526967676564526f6c6c3a20496e73756666696369656e742062616c616e6365232320526967676564526f6c6c3a204e6f20616d6f756e7420746f2077697468647261772323205e5e5e526967676564526f6c6c3a204e6f7420676f696e6720746f2077696e2c20736b697070696e67232320526967676564526f6c6c3a20436f6e74726163742062616c616e6365206265666f72653a232320526967676564526f6c6c3a205769746864726177696e672062616c616e63653a232320526967676564526f6c6c3a2057697468647261776e207375636365737366756c6c79232320526967676564526f6c6c3a20496e636f6d696e67206d73672e76616c75653a232320526967676564526f6c6c3a204661696c656420746f2073656e64204574686572a26469706673582212200777810e51fbbb06bcdf953a4aaaa0fc15ffe0171fb49c52cc43d4b80329899464736f6c63430008140033",
  "devdoc": {
    "errors": {
      "OwnableInvalidOwner(address)": [
        {
          "details": "The owner is not a valid owner account. (eg. `address(0)`)"
        }
      ],
      "OwnableUnauthorizedAccount(address)": [
        {
          "details": "The caller account is not authorized to perform an operation."
        }
      ]
    },
    "kind": "dev",
    "methods": {
      "owner()": {
        "details": "Returns the address of the current owner."
      },
      "renounceOwnership()": {
        "details": "Leaves the contract without owner. It will not be possible to call `onlyOwner` functions. Can only be called by the current owner. NOTE: Renouncing ownership will leave the contract without an owner, thereby disabling any functionality that is only available to the owner."
      },
      "transferOwnership(address)": {
        "details": "Transfers ownership of the contract to a new account (`newOwner`). Can only be called by the current owner."
      }
    },
    "version": 1
  },
  "userdoc": {
    "kind": "user",
    "methods": {},
    "version": 1
  },
  "storageLayout": {
    "storage": [
      {
        "astId": 8,
        "contract": "contracts/RiggedRoll.sol:RiggedRoll",
        "label": "_owner",
        "offset": 0,
        "slot": "0",
        "type": "t_address"
      },
      {
        "astId": 422,
        "contract": "contracts/RiggedRoll.sol:RiggedRoll",
        "label": "diceGame",
        "offset": 0,
        "slot": "1",
        "type": "t_contract(DiceGame)412"
      }
    ],
    "types": {
      "t_address": {
        "encoding": "inplace",
        "label": "address",
        "numberOfBytes": "20"
      },
      "t_contract(DiceGame)412": {
        "encoding": "inplace",
        "label": "contract DiceGame",
        "numberOfBytes": "20"
      }
    }
  }
}